:100000000C9437020C945F020C945F020C945F0214
:100010000C945F020C945F020C945F020C945F02DC
:100020000C945F020C945F020C945F020C947705B1
:100030000C945F020C945F020C945F020C945F02BC
:100040000C9422050C945F020C945F020C945F02E6
:100050000C945F020C945F020C945F020C945F029C
:100060000C945F020C945F020101FF030101F7038E
:100070006C00680000000000240027002A00000037
:100080000000250028002B000500893008023802F6
:1000900049786814000040170000000000000000CC
:1000A0000000000000000000000000000000000050
:1000B0000000000000000000000000000000000040
:1000C0000000000000000000000FCFFCFF30C00067
:1000D000000C00C0C330C000000F00C0C03FC00013
:1000E000000C00C0C330C000000FC0C0FF30C00013
:1000F00000000000000000000000000300000000FD
:100100000000000CC0000000000003CFCF00000082
:100110000000000CC00000000000000CC000000047
:1001200000000000000000000FCCCFCFFCFF30C06B
:100130000C0CCC00C0C330C00FCF0F00C0C03FC0FC
:1001400000CCCC00C0C330C00FCCCFC0C0FF30C08B
:1001500000457463682D412D536B65746368000519
:100160000038016801000017534400161378001688
:100170001314001510200015201000540A03E1810B
:10018000867F3E186D830F0F0E0183866033186DD6
:10019000C3198F1803C38E6033186DE330CF180373
:1001A000C39E603630CDE360CF3006C79E7E3E30C2
:1001B000CDB360CF300CC6F6603330D9B660CF33E4
:1001C000CFCCF66061B0DB1E60CF30D86CE6C0618A
:1001D000B0DB1E618F19986CC6C063B19B0E330FE4
:1001E0000FB078C6FF7E1F1B061E0F45006801007A
:1001F00000F6E8DBCFC3B8AEA49B928A827B746E14
:1002000068625C57524E4945413E3A3734312E2C94
:1002100029272523210A0A153A49676E6F7265005E
:100220006D560A0A504C45415345205455524E20B4
:100230004F464620004C4F57204241545445525996
:1002400021200003053F213F1208120A100A0E1C4C
:100250000E0C1E0C141A14161F161E131E1E1B1E27
:100260001E1F1E3F213F3A2F3A173D173F213F18CF
:100270001F02040A041F0E04040E1F0A1F0A0E0E9A
:100280001F04110E2E252E2F2A2E262929021F0289
:10029000081F08150E04040E150E15151B151B045A
:1002A0000604040C040000000017000300031F0AEA
:1002B0001F16371A1904130A153A000300000E110D
:1002C000110E000A040A040E0400300004040400A5
:1002D00010001804031F111F121F101D15171115F0
:1002E0001F07041F17151D1F151D01011F1F151FB7
:1002F00017151F000A00003200040A110A0A0A1129
:100300000A040115020E11171E051E1F150A0E11F3
:100310000A1F110E1F15111F05010E111D1F041FAD
:10032000111F1108100F1F041B1F10101F061F1E86
:10033000040F0E110E1F09060E112E1F051A12159D
:1003400009011F011F101F0F180F1F0C1F1B041B7B
:10035000031C03191513001F11030418111F0002B9
:1003600001022020200001020C121E1F120C0C1290
:10037000120C121F0C1A14041E05242A1E1F021C24
:10038000141D1020201D1F0814111F101E041E1EF6
:10039000021C0C120C3E0A040C123E1E040214161F
:1003A0000A020F120E101E0E100E1E081E120C1244
:1003B00026281E322A26041E21001F00211E0401A9
:1003C00002013F213F172B152010204C4F4144457F
:1003D0005200172B16201314000A4E6F205344208E
:1003E00063617264206F720A6E6F204C4F41444506
:1003F000522E4845580A0A153A45786974001D205E
:10040000466C617368696E670A20206C6F61646571
:10041000722E2E2E0A0A444F4E2754205455524E07
:10042000204F46462100000000002300260029003E
:10043000040404040404040402020202020203038A
:100440000303030301020408102040800102040892
:100450001020010204081020000000080002010022
:10046000000304070000000000000000AF13112487
:100470001FBECFEFD8E0DEBFCDBF11E0A0E0B1E0FE
:10048000E0E2FBE202C005900D92AE31B107D9F770
:1004900023E0AEE1B1E001C01D92A53BB207E1F758
:1004A00012E0C7E3D2E004C02197FE010E94831549
:1004B000C633D107C9F70E9426100C948E150C94F0
:1004C0000000CF92DF92EF92FF920F931F93CF9392
:1004D000DF936C017A018B01C0E0D0E0CE15DF051F
:1004E00089F0D8016D918D01D601ED91FC910190BB
:1004F000F081E02DC6010995892B11F47E0102C01F
:100500002196ECCFC701DF91CF911F910F91FF9002
:10051000EF90DF90CF900895089580E090E00895E7
:100520004F925F926F927F92AF92BF92CF92DF9283
:10053000EF92FF920F931F93CF93DF93EC018B0108
:1005400081E08093840310928303109282031092BF
:10055000460380939C0380939D038CE0D82E9BEEF2
:10056000E92E91E0F92ECC24C39429E0B22E0E940A
:1005700055078823E1F3FE018491882319F0A090A8
:10058000810301C0A12C6BE771E080E00E94BF0BEA
:100590000115110529F0B8018CE08A0D0E94BF0BEE
:1005A00010928503D0928603CE010E94B30D8091F4
:1005B0008003982F990F890F81958D5A8093850319
:1005C00080918103982F990F890F8195835D809386
:1005D000860380919F0384FF03C087E791E002C0F8
:1005E00083E791E00E94D40D80918003982F990FAA
:1005F000890F81958D5A80938503809186038F5F43
:100600008093860380915803882319F08FE691E048
:1006100002C08BE691E00E94D40D80918003982F58
:10062000990F890F81958D5A809385038091860358
:100630008F5F8093860387E691E00E94D40D8091BE
:100640004403813041F5809158038F5F2091590315
:1006500087FD0AC0082E000C990B30E0B9016F5FCE
:100660007F4F0E945B15282F2093580380E00E9443
:10067000E90CF0926103E09260031092660310921D
:100680006503C0925403B092690310926C031092F8
:100690006E0310927003809143038130A9F0809122
:1006A0009E03482F50E060E070E040909F03509020
:1006B000A0036090A1037090A2034416550666063D
:1006C000770690F18F3F81F18FEF80939E0380E05A
:1006D0000E94E90C80E00E94E90C8FE591E0909384
:1006E000610380936003109266031092650381E0BA
:1006F0008093540399E09093690310926C031092D5
:100700006E031092700380934603DF91CF911F9187
:100710000F91FF90EF90DF90CF90BF90AF907F90C0
:100720006F905F904F90089580914503813009F05C
:100730001ECF0E94E20D1BCF0E94891588EF91E029
:10074000EBE2F1E0DF019C011D9221503040E1F726
:10075000109285031092860381E080939C0380931E
:100760009D0390918203911102C0809382030895AA
:10077000833081F028F4813099F08230A1F008951F
:100780008730A9F08830B9F08430D1F480918000AE
:100790008F7D03C0809180008F77809380000895C3
:1007A00084B58F7702C084B58F7D84BD0895809114
:1007B000B0008F7703C08091B0008F7D8093B00030
:1007C00008951F93CF93DF93282F30E0F901E85A63
:1007D000FB4F8491F901EC5BFB4FD491F901E05D93
:1007E000FB4FC491CC23C9F0162F81110E94B8038E
:1007F000EC2FF0E0EE0FFF1FE258FF4FA591B491F0
:100800008FB7F894111105C09C91ED2FE095E92365
:1008100002C0EC91ED2BEC938FBFDF91CF911F9134
:100820000895CF93DF9390E0FC01EC5BFB4F2491A4
:10083000FC01E05DFB4F8491882361F190E0880F1B
:10084000991FFC01EC58FF4FC591D491FC01E2586F
:10085000FF4FA591B491611109C09FB7F8948881A9
:10086000209582238883EC912E230BC0623061F4A3
:100870009FB7F8943881822F809583238883EC91E9
:100880002E2B2C939FBF06C08FB7F894E8812E2B98
:1008900028838FBFDF91CF9108951F93CF93DF936C
:1008A000182FEB0161E00E941104209711F460E021
:1008B00004C0CF3FD10539F461E0812FDF91CF91A2
:1008C0001F910C94E103E12FF0E0E85AFB4FE49113
:1008D000E330F9F048F4E130B9F0E230A1F584B545
:1008E000806284BDC8BD34C0E730E9F0E83019F15A
:1008F000E43049F580918000806280938000D0933D
:100900008B00C0938A0024C084B5806884BDC7BDB5
:100910001FC080918000806880938000D093890000
:10092000C093880015C08091B00080688093B000AB
:10093000C093B3000DC08091B00080628093B0007E
:10094000C093B40005C0C038D1050CF0B5CFAFCF0F
:10095000DF91CF911F9108958E3008F08E508770EF
:10096000806480937C0080917A00806480937A0018
:1009700080917A0086FDFCCF8091780020917900EB
:1009800090E0922B08953FB7F894809120019091C8
:100990002101A0912201B091230126B5A89B05C099
:1009A0002F3F19F00196A11DB11D3FBFBA2FA92FEE
:1009B000982F8827820F911DA11DB11DBC01CD016B
:1009C00042E0660F771F881F991F4A95D1F7089557
:1009D0008F929F92AF92BF92CF92DF92EF92FF924F
:1009E0006B017C010E94C3044B015C01C114D10462
:1009F000E104F104F1F00E94C304DC01CB01881989
:100A00009909AA09BB09883E9340A105B10570F375
:100A100021E0C21AD108E108F10888EE880E83E0CF
:100A2000981EA11CB11CC114D104E104F10419F7F2
:100A3000DDCFFF90EF90DF90CF90BF90AF909F9071
:100A40008F9008951F920F920FB60F9211242F933B
:100A50003F938F939F93AF93BF9380912701909182
:100A60002801A0912901B0912A0130911F0123E0B2
:100A7000230F2D3720F40196A11DB11D05C026E8D6
:100A8000230F0296A11DB11D20931F018093270102
:100A900090932801A0932901B0932A01809120010D
:100AA00090912101A0912201B09123010196A11DF5
:100AB000B11D8093200190932101A0932201B09356
:100AC0002301BF91AF919F918F913F912F910F90F3
:100AD0000FBE0F901F90189580912B03882319F05B
:100AE00080912D0301C080E08093B40008951F928F
:100AF0000F920FB60F9211242F933F934F935F9352
:100B00006F937F938F939F93AF93BF93EF93FF93D5
:100B100060912C03662321F180911E018F5F8093E9
:100B20001E01909125018917D8F090912B0381E047
:100B3000892780932B0310921E0180912601882320
:100B400069F08091000193E4899F802D1124895BD5
:100B5000809300010E944F1590932D030E946C0515
:100B6000FF91EF91BF91AF919F918F917F916F9185
:100B70005F914F913F912F910F900FBE0F901F905B
:100B80001895FC01643508F053C0403308F050C09C
:100B900090A1742F759575957595262F062E000CCE
:100BA000330B542F57709230A1F4F901E55DFE4FDD
:100BB00084E57802E00DF11D1124808190E0052E7E
:100BC00002C0959587950A94E2F78095982F9170C9
:100BD0000AC0933041F48485817046274095417066
:100BE000841303C014C0911112C084E57802200D53
:100BF000311D1124F901E55DFE4F81E090E001C057
:100C0000880F5A95EAF780959081892310C084E572
:100C10007802200D311D1124F901E55DFE4F81E0C0
:100C200090E001C0880F5A95EAF79081892B808364
:100C30000895DF92EF92FF920F931F93CF93DF936C
:100C40001F92CDB7DEB78C01D62EF42EE12CE21622
:100C500054F46E2D6D0D4F2DC80129830E94C105DE
:100C6000E3942981F4CF0F90DF91CF911F910F91E1
:100C7000FF90EF90DF9008952F923F924F925F92F6
:100C80006F927F928F929F92AF92BF92CF92DF929C
:100C9000EF92FF920F931F93CF93DF93EC016A3093
:100CA00019F42D819885C3C06D3009F4C6C038840D
:100CB0007A84D98448A083E58D150CF4A1C08FE215
:100CC00087150CF49DC08C8190E00197389E9001AF
:100CD000399E300D1124C9018D0D911DD7FC9A95B7
:100CE000181619060CF08CC08D81839DC00111244B
:100CF000870D911D77FC9A95181619060CF080C087
:100D00005D2CCD2CE62EF12CA32C032C000CBB0863
:100D1000EC2DED190E2E000CFF0B8C8190E0E817E6
:100D2000F9070CF06CC00197E817F90779F0E89E15
:100D30009001E99E300DF89E300D1124E20FF31F53
:100D40008E8D9F8DE80FF91F149101C010E0072DC3
:100D5000672C262D2719022E000C330B8D8190E075
:100D6000281739070CF048C010FF1EC081E0381268
:100D700006C0462D6C2DCE010E94C10539C0202E23
:100D80004501800E911C07FD9A94822D022C000CC7
:100D9000990B8815990564F5232D422D652DCE01FB
:100DA0000E9419062394F1CF89A198A1891701F116
:100DB00088A381E0381206C0462D6C2DCE010E941A
:100DC000C10515C0202E4501800E911C07FD9A9487
:100DD000822D022C000C990B8815990544F4232DC3
:100DE000422D652DCE010E9419062394F1CF48A211
:100DF00016956394030DADCFC394530C89CF48A2CD
:100E000028853C818985329F800D112489879F81A7
:100E1000992399F0082E000C990B44E550E0239F8C
:100E2000401951091124481759073CF49D818A85BE
:100E3000299F800D11248A87198681E090E0DF9137
:100E4000CF911F910F91FF90EF90DF90CF90BF90C7
:100E5000AF909F908F907F906F905F904F903F905A
:100E60002F900895DF92EF92FF920F931F93CF93ED
:100E7000DF931F92CDB7DEB78C01D62EF42EE12C76
:100E8000E21654F44E2D4F0D6D2DC80129830E949A
:100E9000C105E3942981F4CF0F90DF91CF911F9189
:100EA0000F91FF90EF90DF9008954F925F926F92B5
:100EB0007F928F929F92AF92BF92CF92DF92EF92EA
:100EC000FF920F931F93CF93DF9300D000D01F9218
:100ED000CDB7DEB74091AE035091AF036091B00340
:100EE0007091B1032FB7F894809127019091280158
:100EF000A0912901B0912A012FBF481B590B6A0B01
:100F00007B0B8091AD0390E0A0E0B0E00091A903DD
:100F10001091AA032091AB033091AC03841795077D
:100F2000A607B70730F4011511052105310509F0B1
:100F300044C3012B022B032B09F03DC380914503D1
:100F400081508E3FC0F5809144038130C9F5809176
:100F500058038F5F6091590387FD09C0082E000C6C
:100F6000990B70E06F5F7F4F0E945B15682F609355
:100F7000580382ED93E09093B3038093B20388E427
:100F80008093B40380E00E94E90C8BEE91E0909393
:100F9000610380936003109266031092650381E001
:100FA0008093540389E08093690310926C0310923C
:100FB0006E03109270038091450381508E3F70F450
:100FC00080914303813009F0A4C385EC93E09093B2
:100FD000B3038093B20388E48093B40380E00E945B
:100FE000170E80915403882309F4ABC080916803E5
:100FF0008111A7C08091600390916103E091650326
:10100000F0916603EE0FFF1FE80FF91F4591549111
:1010100041155105F1F420916403222331F010921F
:10102000660310926503FC0112C010925403809174
:101030005303882341F080E00E94170EE09165037E
:10104000F09166032DC080E00E94D40C7AC04591D7
:1010500054919A01369527953695279540FF51C0B2
:10106000CA01B6E096958795BA95E1F78F71952FED
:1010700096959695969590512F70223071F1F8F4CF
:10108000211117C08B3008F08AE080936903E0914A
:101090006503F09166033196F0936603E093650370
:1010A000EE0FFF1F8091600390916103E80FF91F1D
:1010B000CECF213061F760E00E94810EE8CF23306F
:1010C000B1F0243021F720915703829F802D112405
:1010D0008093700390937103DACF20915703829F1E
:1010E000802D112480936C0390936D03D0CF2091B9
:1010F0005703829F802D112480936E0390936F037A
:10110000C6CF2F732093670380915703859F802D4F
:101110001124809368031092780310927703109241
:10112000760381E080936A0380932B0310926B0314
:101130008091650390916603019690936603809376
:10114000650380916A03882309F4EEC080916803E7
:10115000811103C00E94D40CE7C0815080936803C2
:1011600080917803811146C02091760330917703F6
:101170002F5F3F4FC901880F991FE0917203F091D3
:101180007303E80FF91F65917491862F8770809320
:101190007903AB0163E0569547956A95E1F7CA017B
:1011A00096958795972F9695969590937A038F733A
:1011B00090915703899F802D11248093780341706B
:1011C0004093260130937703209376038091740334
:1011D00090E02817390770F020917503222339F029
:1011E000821B9109909377038093760303C080E07C
:1011F0000E94D40C80917803815080937803809171
:101200006B0321E0280F20936B034091670330911B
:101210007A03340F80915F03380F30935503609148
:101220006E03662371F070E0822F022E000C990B82
:101230000E945B1580916F03869F300D11243093BF
:1012400055038091550390E0849664E270E00E941B
:101250005B15809355033091690330935603609179
:101260006C03662381F0062E000C770B822F022E72
:10127000000C990B0E945B1580916D03869F300DC9
:10128000112430935603609170036623A1F0822FDE
:10129000220F990B70E00E945B15CB0162E070E0B9
:1012A0000E945B152091710390915603289F900D29
:1012B000112490935603809156034F3341F08A30A6
:1012C0000CF089E087FD80E08093560302C0109205
:1012D0005603F894E0915503F0E0EF50FE4FE4918F
:1012E000E09325013091560320917B033203900156
:1012F0001124409179034203C001439F900D1124B2
:101300000090580302C0880F991F0A94E2F797FFD4
:1013100002C081589F4F880F892F881F990B809397
:101320002C0380932D0378948091B403882309F4CF
:1013300097C08C3020F49CE0D92ED81A01C0D12C53
:1013400081E08093840310929C0310929D0310917E
:10135000810383E0810F3D2D311B335D032FE82E88
:10136000880FFF08E30EF11C37FDFA94802F002E42
:10137000000C990B8E159F055CF42EE4402F63E062
:101380008CE793E03D830E9419060F5F3D81EECF0D
:10139000145003E0030F212F41E0602F80E50E94ED
:1013A0003A0F212F42E0602F83E00E943A0F81E044
:1013B00080939C0380939D03009181038D2D801B5E
:1013C0003DE2F32EF80E2EE44F2D63E08CE793E020
:1013D0000E94190613E0100F1F0D4FEF410F2EE46E
:1013E00063E08CE793E00E941906035033E0F30EAC
:1013F000202F4F2D60E08CE793E00E943207202FD2
:101400004F2D63E58CE793E00E94320741E06F2D9A
:1014100083E00E94BC0E42E06F2D80E50E94BC0E6E
:10142000145044E0612F80E50E94BC0E48E0612F1B
:1014300083E00E94BC0E84E0809385038091810349
:10144000D81A8D2D815D809386038091B20390918F
:10145000B3030E94B30D8091B40381508093B40311
:1014600080914A0390914B03892B09F47CC011E0D1
:1014700010939C0310929D039091800385E5891B36
:10148000809385031092860380914703813009F48D
:101490004DC030F090914603853008F05FC05AC0CF
:1014A00080E00E94E90C10938403E3E4F2E0E4910D
:1014B000EF5FE0938003E4E4F2E0E491EF5FE09318
:1014C000810385E492E090939B0380939A031092AA
:1014D0004B0310924A031092820318EA0E945507A8
:1014E0008823E1F385E392E00E94B30D6091480305
:1014F0007091490380E090E04AE00E949D0F80E2F5
:1015000092E00E94B30D612F62956F7070E080E0F1
:1015100090E04AE00E949D0F85E192E00E94B30DA9
:1015200080914303813009F0FAC01DC080919F0370
:101530009091A003A091A103B091A2038F7099276D
:10154000AA27BB270897A105B10510F487E009C0B9
:1015500088E707C0992339F08B5F03C0992319F0FE
:101560008FE20E94DE0F0E94730D80918203811131
:101570000EC088EF91E0EBE2F1E0DF019C011D92EB
:1015800021503040E1F710928503109286030E94AB
:10159000C3046093A9037093AA038093AB03909351
:1015A000AC032091A5033091A603621B730B7093CB
:1015B000A4036093A30380E0CCC02FB7F89480917C
:1015C000270190912801A0912901B0912A012FBFF4
:1015D0002091AD03820F911DA11DB11D8093AE031B
:1015E0009093AF03A093B003B093B10380919F0396
:1015F0009091A003A091A103B091A2030196A11D17
:10160000B11D80939F039093A003A093A103B09377
:10161000A2031092A9031092AA031092AB03109296
:10162000AC030E94C3046093A5037093A603809348
:10163000A7039093A80380912F03909130032FE08C
:10164000289F8001299F100D112485E10E94AC0480
:10165000800F911F24E0969587952A95E1F7909346
:10166000300380932F0320912E03222309F44BC0D3
:1016700060913203262F30E040E050E029833A8326
:101680004B835C83C0903303D12CE12CF12C40912F
:101690003603509137034A01A12CB12C2091340319
:1016A000309135032901612C712C8217930728F0A2
:1016B0009C014817590708F49A01C901A0E0B0E05D
:1016C0009C01AD01241935094609570969817A81C0
:1016D0008B819C816C197D098E099F090E943F15A1
:1016E000A501940124193509460957090E94BA1326
:1016F000C20ED31EE41EF51EC09231036C2D70E0A5
:1017000085E00E944D040E94000D0E94E90F81E0D7
:1017100020C0893209F062CC0E94E20D5FCC1150EA
:1017200009F0DCCE60E070E085E00E944D0483B7F4
:10173000817F846083BF83B7816083BF83B781600B
:1017400083BF889583B78E7F83BF83B78E7F83BF28
:10175000C5CE0F900F900F900F900F90DF91CF910B
:101760001F910F91FF90EF90DF90CF90BF90AF90BF
:101770009F908F907F906F905F904F9008958F9281
:101780009F92AF92BF92CF92DF92EF92FF920F9310
:101790001F93CF93DF93FB0124913196C490F09077
:1017A0009C03022E000C330B121613060CF0D7C04C
:1017B00080330CF0D4C0482F082E000C550BFA01D2
:1017C000EC0DF11DC7FCFA951E161F060CF0C7C0E4
:1017D0006E5F7F4FD901179693E0B595A7959A95BF
:1017E000E1F787FF0BC0C80EA49FC001A59F900D15
:1017F000B49F900D1124681B790B80E04C2D0C2CAC
:10180000000C550B480F511D87FD5A95413351056A
:101810001CF090E3C92EC81A2535310514F024E5D3
:1018200030E0109188031827982F977031E001C09D
:10183000330F9A95EAF7859585958595F4E58F029E
:10184000C0011124855D9E4F00E00C2C000CDD08CA
:10185000BB24B394402F50E04C155D050CF07FC0C5
:10186000FB01E490F1E0FF1218C0FB01EC0140E83D
:10187000542F5E2119F05881532B588350E0559511
:1018800047954115510519F43196E49040E82196A9
:101890005C2F581B521760F359C0F1101AC0A32EC9
:1018A000A094FB01EC0140E8542F5E2119F058810F
:1018B0005A21588350E0559547954115510519F423
:1018C0003196E49040E821965C2F581B521760F344
:1018D0003DC043E0F41223C0932E9094FB01EC0131
:1018E00040E8A82E8C2E881A542F5E2141F08126C4
:1018F000588180FE02C0532B01C05921588350E00B
:10190000559547954115510519F43196E49040E8F5
:1019100021965C2F5A19521728F31B2517C0FB017B
:10192000EC0140E8542F5E2119F058815327588369
:1019300050E0559547954115510519F43196E490BD
:1019400040E821965C2F581B521760F3330F19F4AF
:101950008C5A9F4F31E00F5F6A0F7B1F7BCFDF9167
:10196000CF911F910F91FF90EF90DF90CF90BF909C
:10197000AF909F908F900895BC01009791F0FC016B
:1019800001900020E9F73197AF01481B590BE09116
:101990007C03F0917D030280F381E02D8CE793E0DE
:1019A000099480E090E00895811112C010926A03BA
:1019B00010926803109277031092760310926B03D3
:1019C00010922D0310922C0310922B030C946C0593
:1019D0000895811114C010926A0310926803109246
:1019E00077031092760310926B0310922D031092DE
:1019F0002C0310922B030E946C051092540308953F
:101A0000CF92DF92EF92FF920F931F93CF93DF93CA
:101A1000C8E3D3E00FE313E0FF24FA9497E0E92E44
:101A2000E00E62E088810E941104288130E0F90113
:101A3000E85AFB4F8491F901EC5BFB4FC490F9012C
:101A4000E05DFB4FD490DD2071F081110E94B8035E
:101A5000ED2DF0E0EE0FFF1FEA5DFB4FA591B49175
:101A6000EC91EC21B1F4F80180818F5F808360E01C
:101A700088810E94110421960F5F1F4FE012D1CF81
:101A8000DF91CF911F910F91FF90EF90DF90CF905A
:101A90000895F8018081882371F3F8018F3F11F4D4
:101AA0001082E5CFF082E3CFCF93C82FF89460E0A7
:101AB00080918B030E94E10380918C0318161CF423
:101AC00060E00E94E103CEBD00000DB407FEFDCF33
:101AD0008EB580918C0318161CF461E00E94E1031E
:101AE0007894CF9108950F931F93CF93809188039B
:101AF0008F5F809388030BE211E0C0E08C2F80643D
:101B00000E94540D80E80E94540D61E080918B0387
:101B10000E94E10380918C0318161CF460E00E947F
:101B2000E10380E090E0F801E80FF91F20812EBD6D
:101B300000000DB407FEFDCF2EB50196843591054A
:101B400091F780918C0318161CF461E00E94E10368
:101B5000CF5F0C5A1F4FC63089F680E4CF911F919A
:101B60000F910C94540D0F931F93CF93DF938C011F
:101B7000C0E0D0E0F801EC0FFD1F6491662371F026
:101B8000E0917C03F0917D030190F081E02D8CE7E2
:101B900093E00995892B11F02196ECCFCE01DF91CE
:101BA000CF911F910F910895CF93DF930E94B30DB2
:101BB000EC0183E191E00E94BC0C8C0F9D1FDF9132
:101BC000CF91089588EF91E0EBE2F1E0DF019C0115
:101BD0001D9221503040E1F7109285031092860348
:101BE0008EEF93E00E94B30D0E94730D8CB583605D
:101BF0008CBD8DB58E7F8DBD86E191E0EEEFFFE36C
:101C000009951092820389ED93E00E94D40D0E9401
:101C1000730D0E94000D80914303813039F062E31F
:101C200070E080E090E00E94E804F3CF0895AF9266
:101C3000BF92CF92DF92EF92FF920F931F93CF93B9
:101C4000DF93C82ED12CE601C25DDC4F9DA1992304
:101C500009F44CC07E019FEFE91AF90AF70195A13A
:101C6000911144C09EA58601000F111F025D1C4FFB
:101C7000F80134A525A5E32FF22FE90FF11DE90F97
:101C8000F11D259134912F3FFFEF3F0711F41DA265
:101C90002DC039ABF601EE0FFF1FE85CFC4F332778
:101CA000220F331F05A0F6A1E02DE20FF31FA59030
:101CB000B490811117C00E94E90CF801B3AAA2AA3E
:101CC000F601EE0FFF1FE05CFC4F16A215A281E0AB
:101CD000F70185A389E08BAF1EAEFE017B9615A2AE
:101CE000329615A229968DA18F5F8DA3DF91CF919A
:101CF0001F910F91FF90EF90DF90CF90BF90AF902A
:101D0000089570E0DB01AA0FBB1FA25DBC4FD49603
:101D10002C91D497D5969C91D597E22FF92FE80F67
:101D2000F11DE80FF11D259134915F9696963C9335
:101D30002E939597F9018591949190915703989FCF
:101D4000802D1124625D7C4FFB01B19685A3F901C2
:101D5000A591B4914B2F50E0E82FF0E04E175F07AC
:101D600020F4F90125913491832FFB01B296899FCC
:101D7000802D112485A30895AF92BF92CF92DF9258
:101D8000EF92FF920F931F93CF93DF93182F062F9D
:101D9000C1E0D3E08AEFD82E9EEFE92E842F847025
:101DA000C82E842F8270B82E842F8870A82E417080
:101DB000F42E8C2F880F8F5FE80ECC2081F04D2FF2
:101DC000400F6C2F610F8CE793E00E94C1054C2FF0
:101DD000400F6D2F610F8CE793E00E94C105BB207F
:101DE00081F0402F4D1B6C2F610F8CE793E00E9418
:101DF000C105402F4C1B6D2F610F8CE793E00E94B3
:101E0000C105AA2081F04C2F400F612F6D1B8CE77C
:101E100093E00E94C1054D2F400F612F6C1B8CE792
:101E200093E00E94C105FF2081F0402F4C1B612FE1
:101E30006D1B8CE793E00E94C105402F4D1B612F65
:101E40006C1B8CE793E00E94C105CD1744F4E7FCBE
:101E500004C0D150D394D394ED0CCF5FAACFDF91BF
:101E6000CF911F910F91FF90EF90DF90CF90BF9097
:101E7000AF9008959F92AF92BF92CF92DF92EF9270
:101E8000FF920F931F93CF93DF93F82EE62EB22E7F
:101E900003E0020FD0E0C3E08AEFC82E1EEF842FCC
:101EA0008170982EAA24A394A20E4270D42EDF5FD4
:101EB000802F8B19180F9920A1F02C2F220F2A0D9B
:101EC0004E2D4C1B6D2F6F0D8CE793E00E94320757
:101ED000202F4E2D4D1B6C2F6F0D8CE793E00E9431
:101EE0003207DD20A1F02C2F220F2A0D4E2D4C1B86
:101EF0006F2D6D1B8CE793E00E943207202F4E2D33
:101F00004D1B6F2D6C1B8CE793E00E943207DC1792
:101F100044F417FD04C0C150C394C3941C0D0E5F5C
:101F2000C6CFDF91CF911F910F91FF90EF90DF907F
:101F3000CF90BF90AF909F9008958F929F92AF9255
:101F4000BF920F931F93CF93DF93CDB7DEB7A197C7
:101F50000FB6F894DEBF0FBECDBF19A2423008F411
:101F60004AE08E010F5D1F4F842E912CA12CB12CC5
:101F7000A50194010E94E413E62FB901CA010150A2
:101F80001109EA3014F4E05D01C0E95CD801EC937A
:101F9000232B242B252B61F7C8010E94BC0CA19692
:101FA0000FB6F894DEBF0FBECDBFDF91CF911F916A
:101FB0000F91BF90AF909F908F900895E0917C0318
:101FC000F0917D030190F081E02D682F8CE793E084
:101FD000099480914A0390914B03892BB1F1809130
:101FE00052038F7169F584E10E94AC04BC01990F22
:101FF000880B990B0E94461426EE3FE34EEC50E40A
:102000000E94AA140E9415149B01709349036093C7
:102010004803672B91F084E080934703EAE4F3E000
:1020200080E0419151912417350718F480934703BC
:1020300008958F5F8430A9F703C08FEF8093470323
:10204000809152038F5F809352030895789484B5F2
:10205000826084BD84B5816084BD85B5826085BDA4
:1020600085B5816085BD80916E00816080936E0032
:102070001092810080918100826080938100809124
:1020800081008160809381008091800081608093D5
:1020900080008091B10084608093B1008091B00095
:1020A00081608093B00080917A00846080937A0090
:1020B00080917A00826080937A0080917A008160BA
:1020C00080937A0080917A00806880937A001092E1
:1020D000C10082E38093AD0381E090E0A0E0B0E036
:1020E0008093A9039093AA03A093AB03B093AC038E
:1020F0008FEF80939E03E0E8F7E72591349121303C
:10210000304C09F049C0E6E9F7E7E491E093870332
:10211000E7E9F7E7E491E0933203E8E9F7E7E491D0
:10212000E0933303E9E9F7E78591949190933503C0
:1021300080933403EBE9F7E785919491909337030B
:102140008093360388E080935903EEE9F7E7E49142
:10215000E0935803EFE9F7E7E491E0939E03E0EAA8
:10216000F7E78591949190934B0380934A03E2EAB9
:10217000F7E78591949190934D0380934C03E4EAA3
:10218000F7E78591949190934F0380934E03E6EA8D
:10219000F7E7859194912CC09CE39093870310926C
:1021A00032038093330380E293E09093350380936E
:1021B000340384ED93E0909337038093360388E0F3
:1021C00080935903809358038CEA9DE090934B03CE
:1021D00080934A038EED9DE090934D0380934C03D2
:1021E00084E79EE090934F0380934E038CE39FE03F
:1021F0009093510380935003C1E0C0932E036FEF7F
:1022000070E085E00E944D0488E08093380389E007
:102210008093390387E080933A0386E080933B0301
:10222000D4E0D0933C0382E080933D0381E180932E
:102230003E030E94000D8CE39FE09093490380933E
:102240004803D0934703C09352038BE080938A03E3
:102250008DE08093890380E180938B038EE08093EF
:102260008D038FE080938C03C0938403C0939C0301
:1022700010929D03C0938303E3E4F2E0E491EF5FE7
:10228000E0938003E4E4F2E0E491EF5FE093810304
:1022900085E492E090939B0380939A03CFB7F894E0
:1022A00080912401811127C0EAE3F4E08491EEE4F7
:1022B000F4E09491E82FF0E0EE0FFF1FEC58FF4F91
:1022C000A591B491EC91E92321F461E08AE00E94A8
:1022D000E10361E08AE00E9411048CB580618CBD4D
:1022E0008CB580648CBD61E08DE00E94110461E0DA
:1022F0008BE00E941104809124018F5F8093240160
:10230000CFBF8CB58F7D8CBD8CB58C7F81608CBD33
:102310008DB581608DBD8CB58C608CBD61E0809188
:102320008A030E94110461E0809189030E941104D4
:1023300061E080918B030E94110480918D03181637
:102340001CF461E00E94110480918C0318161CF4A7
:1023500061E00E94110480918D03181674F460E00E
:102360000E94E1036AE070E080E090E00E94E804EF
:1023700061E080918D030E94E10380918903082E22
:10238000000C990BFC01E05DFB4FE491F0E0EE0FD7
:10239000FF1FE258FF4F2591349130939103209312
:1023A0009003FC01EC5BFB4FE491E0939703809179
:1023B0008A03082E000C990BFC01E05DFB4FE491B1
:1023C000F0E0EE0FFF1FE258FF4F2591349130935C
:1023D0008F0320938E03FC01EC5BFB4FE491E093B1
:1023E000960380918C03082E000C990BFC01E05D94
:1023F000FB4FE491F0E0EE0FFF1FE258FF4F2591F5
:1024000034913093930320939203FC01EC5BFB4FD8
:10241000E491E093980380918B03082E000C990BB4
:10242000FC01E05DFB4FE491F0E0EE0FFF1FE2588E
:10243000FF4F259134913093950320939403FC0131
:10244000EC5BFB4FE491E093990381E20E94540D11
:1024500084E10E94540D8091870387FF03C08FE7BA
:10246000809387038091870380680E94540D80E2E7
:102470000E94540D8CE00E94540D0E94730DC1E027
:10248000C093570384E080937B0380E790E09093B0
:1024900063038093620360E080E00E94810E61E04C
:1024A00070E083E00E944D048091B100887F8160DC
:1024B0008093B100F89410928000109281001092E5
:1024C00085001092840088E191E0909389008093C8
:1024D00088008091810088608093810080918100D4
:1024E00081608093810080916F00826080936F0093
:1024F00078940E94E90F80914403813019F410927E
:1025000058031CC0809147038823C9F380E00E94D0
:10251000E90C88E890E09093610380936003109247
:10252000660310926503C093540389E080936903A6
:1025300010926C0310926E031092700380919E03B0
:10254000882331F066E970E080E591E00E94900216
:1025500081E28093AD0381E0809357030E949E0344
:102560008FE2E82EF12C93E5C92ED12C20E0A22E8B
:1025700020E0B22E01E010E00E945507882309F404
:10258000BCC08091410381508E3F08F4BDC0809152
:102590003F0381508E3F08F4C1C0809142038150B7
:1025A0008E3F08F4C5C08091400381508E3F08F4EF
:1025B000C9C080914303813061F480910101909101
:1025C0000201823091052CF00197909302018093D3
:1025D000010180914403813061F480910101909167
:1025E0000201883091052CF40196909302018093AA
:1025F000010180914503813009F4AEC0809145030B
:102600008E3251F480919E03882331F060E070E0B7
:1026100081E591E00E949002809105019091060170
:102620001816190624F01093060100930501209155
:102630000101309102018091050190910601820F04
:10264000931F843591053CF0C601821B930B909338
:1026500006018093050180910301909104011816F1
:10266000190624F0109304010093030180910301E3
:1026700090910401820F931FC0973CF0C701821B09
:10268000930B9093040180930301C22F7090050176
:10269000D0910301822E220F99088D0E911CD7FD37
:1026A0009A948D2F0D2E000C990B881599054CF4DA
:1026B0002C2F4D2F672D8CE793E00E941906DF5FCA
:1026C000F0CF20E340E060E08CE793E00E94320727
:1026D00024E540E060E08CE793E00E94190620E3E7
:1026E00040E063E58CE793E00E94320724E54FE287
:1026F00060E08CE793E00E941906A114B10409F48C
:102700003BCF0E94000038CF8091050190910601D7
:102710000196909306018093050139CF80910501C0
:10272000909106010197909306018093050135CFA2
:10273000809103019091040101969093040180938C
:10274000030131CF8091030190910401019790938F
:102750000401809303012DCF0E949E034FCF10925E
:102760007F0310927E038BE091E090937D03809332
:102770007C030895052E97FB1EF400940E94D1134C
:1027800057FD07D00E94E41307FC03D04EF40C94CD
:10279000D11350954095309521953F4F4F4F5F4F46
:1027A000089590958095709561957F4F8F4F9F4FBD
:1027B00008950E940614A59F900DB49F900DA49FAC
:1027C000800D911D11240895A1E21A2EAA1BBB1B96
:1027D000FD010DC0AA1FBB1FEE1FFF1FA217B307ED
:1027E000E407F50720F0A21BB30BE40BF50B661F03
:1027F000771F881F991F1A9469F7609570958095C7
:1028000090959B01AC01BD01CF010895A29FB0013D
:10281000B39FC001A39F700D811D1124911DB29F14
:10282000700D811D1124911D08950E94891488F056
:102830009F5798F0B92F9927B751B0F0E1F0660F84
:10284000771F881F991F1AF0BA95C9F714C0B130C5
:1028500091F00E94A314B1E008950C94A314672F83
:10286000782F8827B85F39F0B93FCCF386957795F4
:102870006795B395D9F73EF49095809570956195DD
:102880007F4F8F4F9F4F0895E89409C097FB3EF408
:1028900090958095709561957F4F8F4F9F4F9923AD
:1028A000A9F0F92F96E9BB279395F695879577952B
:1028B0006795B795F111F8CFFAF4BB0F11F460FFEB
:1028C0001BC06F5F7F4F8F4F9F4F16C0882311F043
:1028D00096E911C0772321F09EE8872F762F05C057
:1028E000662371F096E8862F70E060E02AF09A95F2
:1028F000660F771F881FDAF7880F9695879597F9E7
:10290000089557FD9058440F551F59F05F3F71F0DF
:102910004795880F97FB991F61F09F3F79F0879546
:102920000895121613061406551FF2CF4695F1DFCF
:1029300008C0161617061806991FF1CF869571055F
:10294000610508940895E894BB2766277727CB0193
:1029500097F908950E94BD140C942E150E9420151D
:1029600038F00E94271520F0952311F00C941715CC
:102970000C941D1511240C94A4140E94811470F35E
:10298000959FC1F3950F50E0551F629FF001729F14
:10299000BB27F00DB11D639FAA27F00DB11DAA1F23
:1029A000649F6627B00DA11D661F829F2227B00D70
:1029B000A11D621F739FB00DA11D621F839FA00DFB
:1029C000611D221F749F3327A00D611D231F849F4B
:1029D000600D211D822F762F6A2F11249F575040A2
:1029E0009AF0F1F088234AF0EE0FFF1FBB1F661F1D
:1029F000771F881F91505040A9F79E3F510580F0E6
:102A00000C9417150C94A4145F3FE4F3983ED4F390
:102A1000869577956795B795F795E7959F5FC1F789
:102A2000FE2B880F911D9695879597F9089597F934
:102A30009F6780E870E060E008959FEF80EC089564
:102A400000240A941616170618060906089500248D
:102A50000A9412161306140605060895092E039407
:102A6000000C11F4882352F0BB0F40F4BF2B11F47B
:102A700060FF04C06F5F7F4F8F4F9F4F0895DB0152
:102A80008F939F930E94D913BF91AF91A29F800D06
:102A9000911DA39F900DB29F900D11240895991B35
:102AA00079E004C0991F961708F0961B881F7A9545
:102AB000C9F78095089597FB072E16F4009407D068
:102AC00077FD09D00E946F1507FC05D03EF4909564
:102AD00081959F4F0895709561957F4F0895AA1B2A
:102AE000BB1B51E107C0AA1FBB1FA617B70710F0F9
:102AF000A61BB70B881F991F5A95A9F7809590952B
:102B0000BC01CD010895EE0FFF1F0590F491E02D5B
:102B1000099481E090E0F8940C948E15F894FFCF1E
:102B200001010018002A00000000003C0661028D2F
:0E2B3000028C020D0A004C4F41444552000039
:00000001FF
